:020000040800F2
:1000000000000220F12F00084130000841300008B4
:100010004130000841300008413000080000000075
:100020000000000000000000000000004130000857
:100030004130000800000000413000084130000855
:1000400041300008413000084130000841300008CC
:1000500041300008413000084130000841300008BC
:1000600041300008413000084130000841300008AC
:10007000413000084130000841300008413000089C
:10008000413000084130000841300008413000088C
:10009000413000084130000841300008413000087C
:1000A000413000084130000841300008413000086C
:1000B000413000084130000841300008413000085C
:1000C000413000084130000841300008413000084C
:1000D000413000084130000841300008413000083C
:1000E000413000084130000841300008413000082C
:1000F000413000084130000841300008413000081C
:10010000413000084130000841300008413000080B
:1001100041300008413000084130000841300008FB
:1001200041300008413000084130000841300008EB
:1001300041300008413000084130000841300008DB
:1001400041300008413000084130000841300008CB
:1001500041300008413000084130000841300008BB
:1001600041300008413000084130000841300008AB
:10017000413000084130000841300008413000089B
:08018000413000084130000885
:1001880008B540F27840074BC2F200001B1A062B54
:1001980000D808BD40F20003C0F20003002BF8D0DD
:1001A8009847F6E77B04002008B540F2784040F213
:1001B8007843C2F20003C2F200001B1A9B1003EB43
:1001C800D373591000D108BD40F20002C0F20002FA
:1001D800002AF8D09047F6E710B540F27844C2F20A
:1001E8000004237873B9FFF7CBFF40F20003C0F295
:1001F80000032BB143F2C400C0F60000AFF3008047
:100208000123237010BD00BF08B540F20003C0F2FF
:1002180000034BB143F2C40040F27C41C0F6000039
:10022800C2F20001AFF3008040F27440C2F2000055
:1002380003682BB140F20003C0F2000303B19847F2
:10024800BDE80840FFF7B0BF134B002B08BF114BA8
:100258009D46A3F5803A00218B460F461148124A65
:10026800121A00F08DF80D4B002B00D098470C4B5C
:10027800002B00D098470020002104000D000B48F7
:1002880000F020F800F04EF82000290000F0B8F93E
:1002980000F01EF800000800000000000000000048
:1002A8000000000078040020AC040020F9020008D7
:1002B800F0300008000000207404002078040020BA
:1002C800AC040020014600200246034600F0A2B814
:1002D80008B50021044600F0F3F843F24403C0F6E1
:1002E80000031868C36B03B19847204602F0F4EE88
:1002F80038B543F2F00443F2EC05C0F60005C0F649
:100308000004641BA41018BF05EB840505D0013C4C
:1003180055F8043D9847002CF9D1BDE8384002F063
:10032800D5BE00BF70B543F2E80643F2E805C0F653
:100338000005C0F60006761BB6101CBF043D00245D
:1003480005D0013455F8043F9847A642F9D143F245
:10035800EC0643F2E805C0F60005C0F60006761B79
:1003680002F0AEFEB6101CBF043D002406D00134D6
:1003780055F8043F9847A642F9D170BD70BD00BF3B
:10038800F0B4840743D0541E002A3ED0CDB20346B1
:1003980003E0621E002C38D0144603F8015B9A076C
:1003A800F7D1032C2AD9CDB245EA05250F2C45EA09
:1003B800054515D9A4F110073F0903F1100606EB0E
:1003C80007161A46156055609560D5601032B2421E
:1003D800F8D104F00F040137032C03EB07130DD9F0
:1003E8001E462246043A032A46F8045BFAD8221F1E
:1003F80022F003020432134404F003042CB1C9B2FE
:100408001C4403F8011BA342FBD1F0BC70471446FF
:100418000346C6E7F0B543F24404C0F6000485B0CD
:100428002668D6F848410746002C44D065681F2D39
:1004380021DD40F20004C0F200041CB94FF0FF3087
:1004480005B0F0BD4FF4C870039102920193AFF369
:1004580000800399029A019B04460028EED0D6F842
:1004680048510020256060600546C6F84841C4F838
:100478008801C4F88C013FB9AB1C002001356560C8
:1004880044F8231005B0F0BD04EB85004FF0010CD3
:10049800C0F88820D4F888610CFA05F21643022FB8
:1004A800C4F88861C0F8083102BFD4F88C311A4307
:1004B800C4F88C21E0E706F5A674C6F84841B5E70C
:1004C8002DE9F04F43F24403C0F6000385B01B68E2
:1004D800029040F200020193C0F2000203F5A473F7
:1004E8000F46039300924FF00109019AD2F8488110
:1004F800B8F1000F1AD0DDF80CA0D8F804305C1E53
:100508005FBF08F188059E1C05EB830508EB86068E
:100518000AD477B1EB6FBB420BD0013C631CA5F149
:100528000405A6F10406F4D1009B7BBB05B0BDE829
:10053800F08FD8F8042056F8043C013AA24216BFBE
:100548000022C8F8044046F8042C002BE5D0D8F85F
:100558008811D8F804B009FA04F20A4210D0D8F881
:100568008C110A420ED1029855F8041C9847D8F805
:1005780004305B45B9D1DAF800304345CDD0B4E753
:100588009847F4E755F8040C9847F0E7D8F8043092
:100598006BB9D8F8003063B14046CAF80030AFF301
:1005A8000080DAF80080B8F1000FA6D1BEE7D8F8CD
:1005B8000030C2469846F6E710B5012184B01020F5
:1005C8004FF4805400F07CFCC4F2000401A801F050
:1005D80041FD0023FF2201A920460292ADF8043014
:1005E800ADF80C30ADF8063001F0E8FC20462021CB
:1005F80002F0BCFA2046012101F08EFD04B010BDC6
:100608002DE9F04F012099B0C0F22000012100F03F
:100618002DFC4FF00050012100F052FC0020032374
:100628003022C4F2020007A900248DF82030079276
:100638008DF8234000F0C6FDFFF7BEFF20460121DC
:1006480002F084FC43F28803C0F60003029343F2ED
:100658004803C0F60003039347F21043C4F20003B3
:10066800049347F2144340F2384540F2944940F26B
:100678009846C4F20003C2F20005C2F20009C2F2B1
:10068800000605934FF004082B7803F0FF04002BB5
:10069800FAD101F0A5FA99F80070FFB240F298413A
:1006A800012FC2F200012ED040224FF420632046D1
:1006B8007260B360C6F80080F46001F09FFA2046CB
:1006C800012101F0BBFA042047F6F07101F0FEFAAF
:1006D80040F2984180224FF41063C2F200011020CA
:1006E8007260B360C6F80080F46001F087FA1020E9
:1006F800012101F0A3FA20464FF4807101F0F6FAC7
:1007080001232B70C0E72046C6F800807460F460AF
:1007180001F074FA46F2A000C4F2020001F028F8D1
:10072800049B10940A93029B11940B9346F2A00029
:1007380040234FF060624FF0060E4FF4806B4FF489
:10074800807A09A90C93C4F202004FF4003309928D
:10075800CDF834E0139301920E94149415971694DF
:100768001794CDF83CB0CDF848A001F0FDF846F25A
:10077800A0003946C4F2020001F03EF9204639468D
:1007880001F05CFA2046394601F0DEFA40F2984161
:10079800C2F200011020C6F800807460F46001F015
:1007A8002DFA46F28800C4F2020000F0E1FF40236F
:1007B8000C934FF400331393059B019A0A9346F266
:1007C8008800039B09924FF0200C4FF4006E4FF401
:1007D800005209A9C4F202000B93CDF834C0CDF839
:1007E80040E01192CDF83CB0CDF848A00E94149496
:1007F80015971694179401F0B7F846F28800394611
:10080800C4F2020001F0F8F83946102001F016FA97
:100818003946102001F098FA72E700BF2DE9F04F31
:1008280040F29843C2F2000346F2880691B00024D1
:1008380004221946C4F20206102083E81400DC6082
:1008480001F0DCF9304600F093FF43F24803C0F6AC
:10085800000347F21442C4F200024FF4006C4FF454
:10086800005E0125304601A903934FF0606B4FF4F9
:1008780000334FF0400A4FF020094FF480684FF4DE
:1008880080770292CDF820C0CDF824E00B9306942F
:100898000C940E940F94CDF804B0CDF810A0CDF8B8
:1008A8001490CDF81C800A970D9501F05DF830463C
:1008B800294601F0A1F82946102001F0BFF9294680
:1008C800102001F041FA11B0BDE8F08F2DE9F04792
:1008D80040F298430024C2F2000346F2A00690B00A
:1008E80004221946C4F20206204683E81400DC609C
:1008F80001F084F9304600F03BFF47F2104243F222
:100908008803C4F20002C0F600034FF4806C4FF471
:10091800807E0125304601A94FF0606A4FF0060934
:100928004FF040084FF4003702920393CDF81CC0F3
:10093800CDF828E00894099406940C940E940F942A
:10094800CDF804A0CDF81490CDF810800B970D9534
:1009580001F00AF83046294601F04EF820462946AB
:1009680001F06CF92046294601F0EEF910B0BDE817
:10097800F08700BF70B540F29843C2F200034FF40D
:100988001062194600240426802510201E605D6030
:10099800DC609A6001F032F91020012101F04EF973
:1009A80020464FF48071BDE8704001F09FB900BF48
:1009B80070B540F29843C2F2000300244FF420625D
:1009C80019460425204640265E601D60DC609A605A
:1009D80001F014F92046012101F030F9284647F6C4
:1009E800F071BDE8704001F071B900BF4FF4605379
:1009F800C4F202030022196841F0010119609A60EB
:100A0800186843F2100120F08470C2F2004120F40B
:100A1800803018605960196882B021F4802119600B
:100A2800DA60009201921A6842F480321A601A461B
:100A380003E0009BB3F5A06F09D0136803F40033FB
:100A48000193009B01330093019B002BF1D04FF4DD
:100A58006053C4F202031B6813F4003318BF012368
:100A68000193019B012B08D04FF46D43CEF2000394
:100A78004FF000629A6002B070474FF46053C4F2BE
:100A880002034FF4E042196CC4F2000241F08051B5
:100A98001964116841F4804111609A689A609A68F3
:100AA80042F400429A60996845F2084241F4A05124
:100AB800C0F2407299605A601A6842F080721A60F7
:100AC80019460A684FF460539201C4F20203F8D53C
:100AD8004FF47052C4F2020240F2056111609A6844
:100AE80022F003029A609A6842F002029A609A68B9
:100AF80002F00C02082AFAD1B6E700BF4FF460539F
:100B0800C4F202039A6802F00C02042A3AD0082AB6
:100B180016D04FF41051C0F2F4014FF46053C4F2F0
:100B2800020340F23C429868C2F20002C0F303108C
:100B380040F24C43125CC2F20003D1401960704786
:100B480058685A6810F4800F586815BF4FF49053CE
:100B58004FF41053C0F27A03C0F2F40302F03F02DC
:100B6800B3FBF2F14FF46053C4F20203C0F38810F0
:100B78005B68C3F30143013301FB00F15B00B1FB88
:100B8800F3F1CAE74FF49051C0F27A01C5E700BF0C
:100B98004FF46053C4F202030022196841F00101C6
:100BA80019609A60186843F2100120F08470C2F24C
:100BB800004120F4803018605960196821F48021C0
:100BC8001960DA60704700BF43F60203C4F20203FB
:100BD80000221A701870704782B000234FF46052D8
:100BE8000193C4F2020213689B030FD4019B0133E3
:100BF8000193019BB3F5A06FF5D14FF46053C4F294
:100C080002031868C0F3404002B07047019B0133EB
:100C18000193019BF1E700BF4FF46053C4F2020354
:100C28001A6822F0F80242EAC0001860704700BF54
:100C38000023C4F247231860704700BF43F67003CF
:100C4800C4F20203002201281A701A7005D0042881
:100C580002D105221A70704770471870704700BF9C
:100C68004FF46863C4F247231860704710B4019CBE
:100C780040EA04605B0801434FF46054C4F2020484
:100C8800013B41EA821242EA034363605DF8044B88
:100C9800704700BF6023C4F247231860704700BF45
:100CA8004FF460530907C4F2020341EA8010C3F805
:100CB800840070476823C4F247231860704700BF58
:100CC8004C23C4F247231860704700BF4FF46053A9
:100CD800C4F202039A6822F0EC6211430843986058
:100CE800704700BF4FF46053C4F202039A6822F0C1
:100CF8007842114308439860704700BF4FF460532F
:100D0800C4F202039A6822F0030210439860704705
:100D18004FF46053C4F20203986800F00C00704767
:100D28004FF46053C4F202039A6822F0F0021043B1
:100D3800986070474FF46053C4F202039A6822F433
:100D4800E0521043986070474FF46053C4F20203B6
:100D58009A6822F4604242EAC0009860704700BF77
:100D68004FF46053C4F2020310B49A6802F00C0204
:100D7800042A24D0082A28D04FF41051C0F2F401D4
:100D880001604FF46052C4F2020240F2504394688A
:100D9800C2F20003C4F303141C5DE140416094688F
:100DA800C4F382241C5D21FA04F4846092685DF81F
:100DB800044BC2F342329B5CD940C16070474FF488
:100DC8009051C0F27A010160DBE75C685A6814F45C
:100DD800800F5C6815BF4FF490534FF41053C0F266
:100DE8007A03C0F2F40302F03F02B3FBF2F14FF4CE
:100DF8006053C4F20203C4F388145B68C3F301436D
:100E0800013301FB04F15B00B1FBF3F10160B8E7CA
:100E180000F44073B3F5407F0CD14FF46053C4F233
:100E2800020320F070419A6821F4407122F4F8120C
:100E38000A439A604FF46053C4F20203C0F30B00F4
:100E48001A6F10431867704740F63C63C4F2472393
:100E5800186070474FF46463C4F247231860704702
:100E68004FF4AE73C4F24723186070474FF46053D1
:100E7800C4F202031A6B19B922EA0000186370471A
:100E880010431863704700BF4FF46053C4F2020365
:100E98005A6B19B922EA0000586370471043586327
:100EA800704700BF4FF46053C4F202039A6B19B93C
:100EB80022EA00009863704710439863704700BFA8
:100EC8004FF46053C4F202031A6C19B922EA000005
:100ED8001864704710431864704700BF4FF460539C
:100EE800C4F202035A6C19B922EA00005864704728
:100EF80010435864704700BF4FF46053C4F20203B4
:100F08001A6919B922EA000018617047104318617C
:100F1800704700BF4FF46053C4F202035A6919B90D
:100F280022EA00005861704710435861704700BFBB
:100F38004FF46053C4F202039A6919B922EA000017
:100F48009861704710439861704700BF4FF4605331
:100F5800C4F202031A6A19B922EA0000186270473B
:100F680010431862704700BF4FF46053C4F2020385
:100F78005A6A19B922EA0000586270471043586249
:100F8800704700BF4FF46053C4F202031A6D19B9D9
:100F980022EA00001865704710431865704700BFC3
:100FA8004FF46053C4F202035A6D19B922EA0000E3
:100FB8005865704710435865704700BF4FF4605339
:100FC800C4F202039A6D19B922EA000098657047C5
:100FD80010439865704700BF4FF46053C4F2020392
:100FE8001A6E19B922EA000018667047104318668D
:100FF800704700BF4FF46053C4F202035A6E19B928
:1010080022EA00005866704710435866704700BFD0
:1010180043F60D03C4F202031A7819B922EA000054
:101028001870704710431870704700BF4309012BB0
:101038000ED0022B4FF46053C4F2020300F01F00DD
:101048000CBF1B6F5B6F23FA00F000F001007047C4
:101058004FF46053C4F2020300F01F001B6823FA28
:1010680000F000F0010070474FF46053C4F202032F
:101078005A6F42F080725A67704700BF4FF460534E
:10108800C4F20203DB6818420CBF0020012070473D
:1010980043F60E03C4F202031870704708B5002324
:1010A800C4F2020398423CD04FF48063C4F20203B6
:1010B800984240D04FF40063C4F20203984244D0EF
:1010C8004FF44063C4F20203984248D04FF480536F
:1010D800C4F2020398424CD04FF4A053C4F2020366
:1010E800984250D04FF4C053C4F20203984254D0EF
:1010F8004FF4E053C4F20203984258D04FF400531F
:10110800C4F20203984200D008BD4FF48070012158
:10111800FFF7F2FE4FF480700021BDE80840FFF7AA
:10112800EBBE01200146FFF7E7FE01200021BDE8E4
:101138000840FFF7E1BE02200121FFF7DDFE022093
:101148000021BDE80840FFF7D7BE04200121FFF7C2
:10115800D3FE04200021BDE80840FFF7CDBE0820DB
:101168000121FFF7C9FE08200021BDE80840FFF76C
:10117800C3BE10200121FFF7BFFE10200021BDE8EB
:101188000840FFF7B9BE20200121FFF7B5FE202057
:101198000021BDE80840FFF7AFBE40200121FFF75E
:1011A800ABFE40200021BDE80840FFF7A5BE802027
:1011B8000121FFF7A1FE80200021BDE80840FFF7CC
:1011C8009BBE00BF00222DE9F00713460E680127D9
:1011D8004FF0030804E00133102B02F102022ED075
:1011E80007FA03F404EA0605A542F4D1D0F8009002
:1011F80091F804C008FA02F4E44304EA0909C0F8C3
:101208000090D0F800900CFA02FA0CF1FF3C5FFA5B
:101218008CFC4AEA0909BCF1010FC0F8009011D909
:10122800C56891F807C02C40C460C5680CFA02F480
:1012380001332C43102BC46002F10202D0D1BDE867
:10124800F0077047D0F808A091F8059091F806C00B
:1012580004EA0A0AC0F808A0D0F808A009FA02F9B6
:1012680049EA0A09C0F80890D0F8049029EA050567
:10127800456045680CFA03FC1FFA8CFC4CEA05052E
:101288004560CDE700234FF6FF720260037143719A
:101298008371C371704700BF82B04FF480330193EC
:1012A800019B0B430193019BC361C161019BC36116
:1012B800C3690193C369019302B070470369194276
:1012C8000CBF002001207047006980B2704700BF42
:1012D800436919420CBF002001207047406980B261
:1012E800704700BF01837047418370470AB9418343
:1012F80070470183704700BF416170474369594097
:1013080041617047CB0800EB830001F0070110B47E
:101318008900046A0F238B4024EA03030362036AEB
:101328005DF8044B8A4013430362704708B54FF4D5
:101338008053C4F20103984228D04FF48843C4F282
:10134800000398422CD04FF49043C4F20003984213
:1013580032D04FF49843C4F20003984238D04FF487
:10136800A043C4F2000398423ED04FF4A053C4F205
:101378000103984200D008BD20200121FFF7F4FDA9
:1013880020200021BDE80840FFF7EEBD1020012114
:10139800FFF7EAFD10200021BDE80840FFF7E4BD93
:1013A8004FF400300121FFF7D1FD4FF40030002148
:1013B800BDE80840FFF7CABD4FF480200121FFF7C0
:1013C800C5FD4FF480200021BDE80840FFF7BEBDF1
:1013D8004FF400200121FFF7B9FD4FF40020002150
:1013E800BDE80840FFF7B2BD4FF480100121FFF7B8
:1013F800ADFD4FF480100021BDE80840FFF7A6BD01
:10140800028ACB8822F440521204F0B5120C04462A
:101418001A430F898E8848890D4689892282A389B3
:1014280023F4B05347EA060223F00C0302431B04DB
:1014380092B21B0C1343A381A38A23F440731B04A9
:101448001B0C85B00B43A3826846FFF789FCA6896D
:101458000298039B4FF4A0514FF48052C4F201014B
:10146800C4F20102944218BF8C4232B218BF03463C
:10147800002A2A68A08903EB8303B4BF52009200B4
:1014880003EB8303B3FBF2F348F21F52C5F2EB12EE
:10149800A2FB035100B264254909002801FB15335A
:1014A800B5BFDB001B0132333233B5BFA2FB0302E9
:1014B800A2FB0352C2F34212C2F3431209011143C1
:1014C80089B2218105B0F0BD00234FF416510C22DA
:1014D800016042818380C38003818381704700BF9C
:1014E80030B40A884D888C88038AC9882A432243E5
:1014F80023F470630A431B0492B21B0C1343038248
:1015080030BC70470023038043808380C3807047CA
:10151800838929B923F400531B041B0C838170476A
:101528009BB243F400538381704700BF038B03F4DD
:101538007F430383038B9BB219430183704700BF2A
:10154800838919B9C3F30E03838170476FEA434354
:101558006FEA53439BB28381704700BF838A29B9DE
:1015680023F400631B041B0C838270479BB243F473
:1015780000638382704700BFC1F308018180704710
:101588008088C0F308007047038A23F00F031B0408
:101598001B0C0382038A9BB219430182704700BF68
:1015A800838929B923F002031B041B0C838170472C
:1015B8009BB243F002038381704700BF838923F401
:1015C80000631B041B0C838183899BB219438181AF
:1015D800704700BF038A23F020031B041B0C0382FF
:1015E800038A9BB219430182704700BF038A29B955
:1015F80023F480431B041B0C038270479BB243F403
:1016080080430382704700BF83899BB243F0010384
:1016180083817047838A29B923F008031B041B0CB4
:10162800838270479BB243F008038382704700BFF0
:10163800038BDBB20383038B9BB243EA0121018353
:10164800704700BF838A29B923F020031B041B0CB1
:10165800838270479BB243F020038382704700BFA8
:10166800838A29B923F010031B041B0C838270475B
:101678009BB243F010038382704700BF838A23F034
:1016880004031B041B0C8382838A9BB21943818247
:10169800704700BF838A29B923F002031B041B0C7F
:1016A800838270479BB243F002038382704700BF76
:1016B800838A9BB21AB923EA0101818270471943D0
:1016C8008182704701F01F0310B4C1F34211012455
:1016D800A14204FA03F308BF0C3003D002290CBF5F
:1016E8001030143004682AB924EA030303605DF853
:1016F800044B7047234303605DF8044B704700BFF9
:10170800038819420CBF002001207047C94389B2E1
:1017180001807047C1F3421330B401F01F02012465
:10172800012B04FA02F416D0022B0CBF028A828A1B
:1017380092B2224003880125090A05FA01F19BB2F9
:1017480019420CBF00200120002A0CBF002000F025
:10175800010030BC7047828992B22240EAE700BF9C
:10176800090A012303FA01F1C94389B201807047CC
:1017780010B446F210020468C4F202020023904238
:1017880024F001040460036043608360C360036164
:1017980004BF4FF4C043C4F202034FF0210108BF55
:1017A8003D22416108BF9A6000F0A28046F22803FA
:1017B800C4F20203984201BF4FF4C043C4F20203CB
:1017C8004FF474629A6000F0938046F24003C4F2CA
:1017D8000203984201BF4FF4C043C4F202034FF41E
:1017E80074129A6000F0848046F25803C4F202032F
:1017F800984201BF4FF4C043C4F202034FF0746231
:101808009A6075D046F27003C4F2020398427BD006
:1018180046F28803C4F2020398427ED046F2A0033F
:10182800C4F20203984266D046F2B803C4F2020337
:10183800984201BF4FF4C043C4F202034FF03D5237
:10184800DA6055D046F21043C4F20203984201BF51
:101858004FF4C843C4F202033D229A6048D046F2CE
:101868002843C4F20203984201BF4FF4C843C4F2AC
:1018780002034FF474629A603AD046F24043C4F2CD
:101888000203984201BF4FF4C843C4F202034FF465
:1018980074129A602CD046F25843C4F2020398425C
:1018A80001BF4FF4C843C4F202034FF074629A6058
:1018B8001ED046F27043C4F20203984237D046F273
:1018C8008843C4F2020398423AD046F2A043C4F2D5
:1018D800020398423ED046F2B843C4F2020398424B
:1018E80001BF4FF4C843C4F202034FF03D52DA601F
:1018F8005DF8044B70474FF4C043C4F20203002262
:10190800C2F23D02DA60F3E74FF4C043C4F20203C7
:101918003D22C2F20002DA60EAE74FF4C043C4F2A3
:1019280002034FF47462C2F20002DA60E0E74FF497
:10193800C843C4F202033D22C2F20002DA60D7E7CC
:101948004FF4C843C4F202034FF47462C2F20002B7
:10195800DA60CDE74FF4C843C4F202030022C2F2B2
:101968003D02DA60C4E700BFCA680B68D0F800C05F
:101978002DE9F0014F698E69CD690C6A42EA0308C6
:1019880048EA07073E434B6A0F6B35432C4344EA4A
:1019980003028C6A42EA04034A6B8C6B48F23F06E6
:1019A8001343CFF21C0623430CEA06061E430660C7
:1019B8004569CE6A0C694A688B6825F0070547EACD
:1019C80006012943416144608260BDE8F001C360BB
:1019D800704700BF0023036043608360C3600361F6
:1019E80043618361C361036243628362C3620363C9
:1019F80043638363704700BF036819B923F0010389
:101A08000360704743F0010303607047036819B926
:101A180023F400430360704743F4004303607047B6
:101A2800036819B923F020030360704743F02003CB
:101A38000360704741607047406880B2704700BFDC
:101A4800036822B923F4002303600161704743F45B
:101A58000023036001617047036819B923F48023E8
:101A68000360704743F48023036070470AB9C1607C
:101A780070470161704700BF0068C0F3C0407047FD
:101A8800006800F001007047406900F038007047B6
:101A980010B44FF4C84246F20F444FF4C043C4F2A6
:101AA8000203C4F20204C4F20202A0428CBF104630
:101AB80018468B004CBF436803685DF8044B21F05F
:101AC800F02121F0821119420CBF0020012070473B
:101AD80010B44FF4C84246F20F444FF4C043C4F266
:101AE8000204C4F20202C4F20203A0428CBF1046F0
:101AF800184611F0005F21F0F02121F0821114BF87
:101B0800C16081605DF8044B704700BF0B060CD5BF
:101B18004369AAB143F08003802943610FD0036869
:101B280001F01E01194301607047802907D0002A7F
:101B3800F5D1036801F01E0123EA01010160704735
:101B480023F0800380294361F3D1704770B44FF4C8
:101B5800C04246F20F454FF4C84421F0F023C4F2C6
:101B68000205C4F20204C4F2020223F0C316A8421A
:101B780088BF224696B1046804F01E0404EAD12402
:101B880089004CBF5268126823F0821313EA0200DE
:101B980002D0201C18BF012070BC7047446904F0B3
:101BA8008004EDE710B44FF4C84246F20F444FF4F6
:101BB800C043C4F20204C4F20202C4F20203A04207
:101BC8008CBF1046184611F0005F21F0F02121F07B
:101BD800821114BFC16081605DF8044B704700BF7B
:101BE80008B54FF000500121FFF7B0F94FF0005051
:101BF8000021BDE80840FFF7A9B900BF70B491E81B
:101C080060004FF4E8438C68CA68C4F2000346EAEF
:101C180005010C431D6840F6FE762243864002FA11
:101C280000F025EA06021043186070BC704700BF38
:101C38000023036043608360C36070474FF4E84348
:101C4800C4F2000339B91A68012101FA00F022EA46
:101C58000000186070471A68012101FA00F010436B
:101C6800186070474FF4E843C4F20003000939B91B
:101C78005A68012101FA00F022EA00005860704712
:101C88005A68012101FA00F010435860704700BFFC
:101C98004FF4E843C4F200035A6818B922F003026B
:101CA8005A60704742F003025A6070474FF4E843A5
:101CB800C4F20003814022B91A6822EA01011960BE
:101CC80070471A6811431960704700BF82B04FF41B
:101CD800E843C4F20003002201920193019B0833F8
:101CE80018440190019B196002B0704782B04FF40C
:101CF800E843C4F20003002201920193019B1433CC
:101D080018440190019B196002B0704747F22043C4
:101D18000828C4F200030CBF42EA012142EA01414B
:101D2800C150704782B04FF4E843C4F20003002268
:101D380001920193019B2C3303EB90000190019BCE
:101D4800186880B202B070474FF4E843C4F2000349
:101D580041B91A684FF4805101FA00F022EA0000F4
:101D6800186070471A684FF4805101FA00F0104368
:101D7800186070474FF4E843C4F20003814022B969
:101D88001A6822EA0101196070471A68114319603C
:101D9800704700BF4FF4E843C4F2000381405B6B17
:101DA80019420CBF00200120704700BF4FF4E843E0
:101DB800C4F2000381405963704700BF4FF4E84301
:101DC800C4F2000381401A68586B084003D01142DE
:101DD8000CBF0020012070474FF4E843C4F2000311
:101DE80081405963704700BF08B50023C4F201035E
:101DF80098425BD0B0F1804F62D04FF48063C4F258
:101E08000003984266D04FF40063C4F2000398427E
:101E18006AD04FF44063C4F2000398426ED04FF486
:101E28008053C4F20003984272D04FF4A053C4F216
:101E38000003984276D04FF48063C4F201039842BD
:101E48007AD04FF48043C4F2010398427ED04FF415
:101E58008843C4F20103984200F084804FF4904311
:101E6800C4F20103984200F089804FF4C053C4F2D1
:101E78000003984200F08E804FF4E053C4F2000350
:101E8800984200F091804FF40053C4F20003984246
:101E980000D008BD4FF480700121FFF757F84FF4C8
:101EA80080700021BDE80840FFF750B801200146C6
:101EB800FFF75AF801200021BDE80840FFF754B8A1
:101EC80001200146FFF742F801200021BDE8084043
:101ED800FFF73CB802200121FFF738F80220002163
:101EE800BDE80840FFF732B804200121FFF72EF8BB
:101EF80004200021BDE80840FFF728B80820012188
:101F0800FFF724F808200021BDE80840FFF71EB8B5
:101F180010200121FFF71AF810200021BDE8084021
:101F2800FFF714B820200121FFF710F82020002126
:101F3800BDE80840FFF70AB802200121FFF714F8AE
:101F480002200021BDE80840FFF70EB84FF48030AA
:101F58000121FFF709F84FF480300021BDE808405F
:101F6800FFF702B84FF400300121FEF7FDFF4FF4F0
:101F780000300021BDE80840FEF7F6BF4FF480208E
:101F88000121FEF7F1FF4FF480200021BDE8084051
:101F9800FEF7EABF40200121FEF7D8FF40200021CC
:101FA800BDE80840FEF7D2BF80200121FEF7CEFF32
:101FB80080200021BDE80840FEF7C8BF70B40022A9
:101FC8004FF48064C4F201020388C4F20104904211
:101FD80018BFA0429BB214BF0022012208D04FF4C0
:101FE8008064C4F20004A04218BFB0F1804F23D12E
:101FF8004FF68F754C881D4045EA04034FF4A056F0
:102008004FF48055C4F20005C4F20006B04218BF70
:10201800A8421FBF0D894FF6FF441C4044EA050340
:102028004D680C880380C56204850AB18B7A0386E3
:102038000123838270BC70474FF400654FF44064FD
:10204800C4F20005C4F20004A04218BFA842D5D1CA
:10205800CEE700BF00234FF0FF32426003800381C8
:1020680043808372704700BF01858282704700BF3A
:10207800038823F070031B041B0C1943018070476D
:1020880041627047C1627047406A7047008D80B2F4
:10209800704700BF038829B923F002031B041B0CF7
:1020A800038070479BB243F002030380704700BF70
:1020B800038829B923F004031B041B0C0380704711
:1020C8009BB243F004030380704700BF038829B91B
:1020D80023F080031B041B0C038070479BB243F062
:1020E80080030380704700BF038823F008031B04A4
:1020F8001B0C038003889BB219430180704700BF03
:10210800038823F440731B041B0C038003889BB2D1
:1021180019430180704700BF038829B923F00103E0
:102128001B041B0C038070479BB243F00103038020
:10213800704700BF2DE9F001048C8D89B1F802C009
:102148000F8824F001042404240C0484028C84885D
:10215800038B4CEA050C22F0020223F073034FF4C0
:102168008066002512041B04C4F20106C4F20105AE
:10217800120C1FFA8CFC1B0CA84218BFB0424CEA88
:102188000202A4B243EA070317D14FF6F775B1F874
:102198000EC0B1F812800E8A8F88154045EA0C0CE3
:1021A8004FF6FB7248EA06064FF6FF450CEA0202B4
:1021B800B6B225403A4346EA050489688480038319
:1021C800BDE8F00141630284704700BF2DE9F003C8
:1021D800048C8D89B1F802C00F8824F010042404FF
:1021E800240C0484028C8488038B22F020021204BD
:1021F80023F4E643120C42EA05121B044FF48066EE
:1022080000251B0CC4F20106C4F2010542EA0C12B7
:1022180043EA0723A84218BFB04292B2A4B29BB2C5
:1022280019D14FF67F76B1F80E90B1F81080B1F859
:1022380004C04F8A16404FF2FF3546EA09164FF69A
:10224800BF722540324045EA880442EA0C1244EA4B
:10225800870492B2A4B2896884800383BDE8F0033E
:1022680081630284704700BF2DE9F003048C8D89D7
:10227800B1F802C00F8824F480742404240C048468
:10228800028C8488838B22F400721204120C42EAB6
:10229800052223F073034FF4806600251B04C4F263
:1022A8000106C4F2010542EA0C221B0CA84218BF21
:1022B800B04292B2A4B243EA070319D14FF2FF76B3
:1022C800B1F80E90B1F81080B1F804C04F8A1640EA
:1022D8004CF6FF7546EA09264FF6FF322540324094
:1022E80045EA081442EA0C2244EA071492B2A4B25E
:1022F800896884808383BDE8F003C16302847047E2
:10230800F0B4048C8D890F88B1F802C024F480548D
:102318002404240C0484028C8488838B22F40052C5
:102328001204120C42EA05324FF480660025C4F20A
:102338000105C4F20106A84218BFB04223F4E643DF
:1023480008BF0E8A8968A4B208BF4BF6FF754FEA2A
:10235800034308BF25404FEA134308BF45EA8614E4
:1023680043EA072342EA0C3208BFA4B292B29BB2F6
:1023780084808383F0BC0164028470470023038057
:102388004380838083608381C38103824382704753
:1023980030B4058C0124ADB28C404FF6F77325EAB2
:1023A80004040B400484183073B10439C1F34E019E
:1023B80048F6FF730C5823400B5012020B5892B288
:1023C8001A430A5030BC704749084FF68F73445877
:1023D8002340435043581A43425030BC704700BF13
:1023E8004163704781637047C163704701647047F8
:1023F800038B23F070031B041B0C194301837047E4
:10240800038B23F4E0431B041B0C43EA01218BB22A
:1024180003837047838B23F070031B041B0C194341
:1024280081837047838B23F4E0431B041B0C43EA2E
:1024380001218BB283837047038B23F008031B04AD
:102448001B0C194301837047038B23F400631B049F
:102458001B0C43EA01218BB203837047838B23F063
:1024680008031B041B0C194381837047838B23F4D7
:1024780000631B041B0C43EA01218BB28383704762
:10248800038B23F004031B041B0C194301837047BF
:10249800038B23F480631B041B0C43EA01218BB2DA
:1024A80003837047838B23F004031B041B0C19431D
:1024B80081837047838B23F480631B041B0C43EADE
:1024C80001218BB283837047038B23F080031B04A5
:1024D8001B0C194301837047038BC3F30E0343EAB4
:1024E80001218BB203837047838B23F080031B0485
:1024F8001B0C194381837047838BC3F30E0343EA94
:1025080001218BB283837047038C23F002031B04E1
:102518001B0C194301847047038C23F008031B0428
:102528001B0C194301847047038C23F020031B0400
:102538001B0C43EA01118BB203847047038C23F010
:1025480080031B041B0C43EA01118BB20384704700
:10255800038C23F400731B041B0C43EA01218BB288
:1025680003847047038C23F400631B041B0C43EAA9
:1025780001218BB203847047038C23F400531B049E
:102588001B0C43EA01318BB203847047038C10B4EF
:1025980001248C409BB223EA04030384038C5DF876
:1025A800044B8A4013439BB203847047038C10B4D6
:1025B80004248C409BB223EA04030384038C5DF853
:1025C800044B8A4013439BB2038470470B88F0B4D2
:1025D800002B32D0042B59D0082B4E88038C00F0E6
:1025E80084808F880D89CC8823F480510904090CD4
:1025F8000184828B038C22F4407223F40053120569
:102608005B04120D5B0C42EA072243EA063342EAF6
:1026180005329BB243F4805392B282830384838B46
:1026280023F440631B041B0C8383838B9BB243EA14
:1026380004239BB28383F0BC7047038C4E888D883B
:102648000F89CC8823F001010904090C0184028B4D
:10265800038C22F0F3021204120C23F00A0342EA5C
:1026680007121B0446F0010192B21B0C2A430B43CC
:1026780002830384038B23F00C031B041B0C0383CA
:10268800038B9BB223430383F0BC7047038C4E88B3
:102698008D880F89CC8823F010010904090C018466
:1026A800028B038C22F44072120523F0A003120D52
:1026B8001B0442EA07321B0C43EA061392B242EAB1
:1026C80005229BB243F0100392B202830384038B6A
:1026D80023F440631B041B0C0383038B9BB243EA64
:1026E80004239BB20383F0BC70478D880F89CC8884
:1026F80023F480710904090C0184828B038C22F075
:10270800F30223F4206312041B04120C1B0C42EA8C
:10271800071243EA062392B29BB243F480732A431A
:1027280082830384838B23F00C031B041B0C838399
:10273800838B9BB2234383837DE700BF0023012261
:10274800828003804380C380038170474A888B88D6
:102758002DE9F0010C88002A0CBF02260026012B67
:1027680014BF4FF480754FF4007514BF4FF0010883
:102778004FF00208002C53D0058CB1F808C0CF8860
:1027880025F010052D042D0C0584048B018C24F4F0
:102798004074240521F0A001240D0904090C44EA21
:1027A8000C34A4B241EA021244EA032392B29BB267
:1027B80042F0100203830284018B21F44061090472
:1027C800090C0183038B9BB243EA07239BB2038363
:1027D800018C21F001010904090C0184028B038C8E
:1027E80022F0F302120423F00A03120C1B0442EA3B
:1027F8000C121B0C43F0010392B21E4342EA080874
:10280800A0F818800684038B23F00C031B041B0C10
:102818000383038B9BB21F430783BDE8F001704716
:10282800048CB1F808C0CF8824F001010904090C10
:102838000184018B048C21F0F3010904090C24F0B4
:102848000A0441EA0C11240442F0010289B2240C62
:1028580014430B4303830484038B23F00C031B04EE
:102868001B0C0383038B9BB23B430383038C23F032
:1028780010031B041B0C0384028B038C22F440728C
:10288800120523F0A003120D1B0442EA0C321B0CA4
:1028980043F0100392B243EA0616154305830684F3
:1028A800038B23F440631B041B0C0383038B9BB231
:1028B80043EA0727BFB20783BDE8F001704700BFAE
:1028C800406B7047806B7047C06B7047006C7047F7
:1028D800038B23F00C031B041B0C0383038B9BB299
:1028E80019430183704700BF038B23F440631B0423
:1028F8001B0C0383038B9BB243EA01218BB2038336
:10290800704700BF838B23F00C031B041B0C8383CD
:10291800838B9BB219438183704700BF838B23F459
:1029280040631B041B0C8383838B9BB243EA012106
:102938008BB28383704700BFB1F802C00B888A89C5
:10294800F0B48F88CE880D894C894CEA03033B4349
:1029580033432B43234313439BB2A0F84430F0BCCA
:10296800704700BF0023038043808380C3800381B6
:1029780043818381704700BFB0F8443021B9C3F365
:102988000E03A0F8443070476FEA43436FEA53439D
:102998009BB2A0F844307047838829B923F0040318
:1029A8001B041B0C838070479BB243F00403838095
:1029B800704700BF838829B923F001031B041B0C4F
:1029C800838070479BB243F001038380704700BF48
:1029D80083899BB21AB923EA01018181704719439F
:1029E8008181704781827047038A19420CBF002099
:1029F80001207047C94389B201827047038A8289DE
:102A080011420CBF0020012019420CBF002000F029
:102A180001007047C94389B2018270470A43A0F890
:102A28004820704783899BB21AB923EA0101818142
:102A38007047194381817047838829B923F00803B7
:102A48001B041B0C838070479BB243F008038380F0
:102A5800704700BF038923F007031B041B0C038185
:102A6800704700BF038923F070031B041B0C194334
:102A7800018103899BB243F007030381704700BFBC
:102A8800602970B427D0068C26F001063604360C6F
:102A98000684058B048C25F0F3052D0424F00A0424
:102AA8002D0C240445F00105240C45EA031344F0D9
:102AB80001049BB2224303830284038923F0700339
:102AC8001B041B0C0B43038103899BB243F00703D0
:102AD800038170BC7047048C24F010042404240C77
:102AE8000484058B048C25F4407524F0A0042D057E
:102AF80024042D0D240C45F4807544F0100445EA97
:102B0800033344EA02129BB292B203830284D4E7ED
:102B180010B4048942EA0323E4B223439BB2194365
:102B2800018103895DF8044B23F077031B041B0C18
:102B380043F077030381704710B4048942EA032302
:102B4800E4B223439BB21943018103895DF8044B26
:102B58009BB243F480430381704700BF038923F08D
:102B680070031B041B0C194301817047838823F0F1
:102B780070031B041B0C838083889BB219438180DC
:102B8800704700BF038923F007031B041B0C038154
:102B980003899BB219430181704700BF038923F061
:102BA80080031B041B0C038103899BB21943018119
:102BB800704700BF10B40489E4B221430A4342EAD3
:102BC80003239CB204815DF8044B704770B40589F7
:102BD800048B068C24F4407426F0220624F00304A7
:102BE8003604360C25F00705240432432D04240C42
:102BF8002D0C44F4807442EA0313294344F0010481
:102C08009EB201810483068470BC7047838829B909
:102C180023F080031B041B0C838070479BB243F096
:102C280080038380704700BFA0F85010704700BF32
:102C380008B54FF480400121FEF796F94FF4804023
:102C48000021BDE80840FEF78FB900BF4FF460537C
:102C5800C4F201031860704701F0FC0303F18043DC
:102C680003F59C3301F0030110B489009C680F221E
:102C78008A4024EA02029A609A685DF8044B884008
:102C880002439A60704700BFDC23C4F22723186010
:102C9800704700BF4FF48063C4F227231860704761
:102CA8004FF46053C4F20103186AC0F30020704760
:102CB8004FF47053C4F201034FF6FF710022C0F2C3
:102CC8007F011A605A609A60DA605961704700BFE4
:102CD800837970B443B34FF47053C4F201030168AD
:102CE8001E6802794579CC4326401E605E6802F171
:102CF800804202F59E3234405C60146821431160C2
:102D080002689868D14308409860D868102D01EA95
:102D18000001D96014D005F1804505F59E352B6872
:102D28001A432A6070BC70470379016803F1804335
:102D380003F59E3370BC1A6822EA01021A607047D4
:102D4800996811439960D9680A43DA6070BC704782
:102D580000230C224271036003718371704700BF26
:102D68004FF47053C4F201031A6910431861704795
:102D78004FF47053C4F201035B6918420CBF002082
:102D8800012070474FF47053C4F201035861704733
:102D98004FF47053C4F201031A685B69034004D00E
:102DA80010420CBF0020012070471846704700BF32
:102DB8004FF47053C4F20103586170474FF46D43E8
:102DC80040F0BF60CEF2000340F40030D860704796
:102DD800C37870B47BB902784FF46143510920314C
:102DE80002F01F020120CEF2000300FA02F243F8BB
:102DF800212070BC70474FF46D43CEF20003467833
:102E0800DA6884780378D243C2F30222C2F104015B
:102E18000F25C9B206FA01F145FA02F2C9B22240F9
:102E28000A4303F1604303F561431201D2B283F808
:102E3800002302784FF4614302F01F010120520978
:102E4800CEF2000300FA01F143F8221070BC70477B
:102E580021F060414FF46D4321F07F01CEF2000371
:102E680008439860704700BF4FF46D43CEF20003EB
:102E78001A6919B922EA00001861704710431861ED
:102E8800704700BF4EF21003CEF2000304281A6800
:102E98000CBF42F0040222F004021A60704700BF1F
:102EA80010B543F29803C0F6000382B0044601212E
:102EB80053F82000FDF7DAFF43F2A802C0F600023B
:102EC80040F2604332F81420C2F20003009253F833
:102ED800240002220123002469468DF804308DF86D
:102EE80007308DF806408DF80520FEF76BF902B023
:102EF80010BD00BF40F2604243F2A803C2F20002D4
:102F0800C0F6000352F8202033F8103013837047BE
:102F180040F2604243F2A803C2F20002C0F6000386
:102F280052F8202033F810305383704740F2604342
:102F3800C2F2000343F2A80253F82030C0F60002A0
:102F4800596932F810204A405A61704730B5044632
:102F5800012087B00D460146FDF788FF4FF48040F9
:102F68000121FDF7BBFF06AB012140F27042C2F21E
:102F7800000243F8101D52F82400194600248DF869
:102F88000C408DF80F40FEF71DF9012D01D007B058
:102F980030BD21462046FFF75FFE082304A88DF8C0
:102FA800153004958DF814408DF81650FFF790FEF3
:102FB8000F23062201A88DF807508DF804208DF8FC
:102FC80005308DF80630FFF703FF07B030BD00BFAE
:102FD80008B540F27043C2F20003012153F8200003
:102FE800FEF76CF908BD00BF002100F004B80D4BD6
:102FF8005B58435004310C480C4B42189A42FFF47A
:10300800F6AF0B4A00F003B8002342F8043B094B23
:103018009A42FFF4F9AFFDF7E9FCFDF783F9FDF7F4
:10302800EFFA7047F0300008000000207404002018
:1030380078040020AC040020FFF7FEBF1000002039
:10304800FF078F090F0B710CAA0DA60E630FD80F7F
:10305800FF0FD80F630FA60EA70D710C0F0B8F096A
:10306800FF076F06EF048D03570258019B002600E7
:10307800000026009B00580157028D03EF046F06DD
:1030880000336699CCFF0000060000000100000034
:103098000800000008000000080000000800000008
:1030A8000010002000400080010000000000000027
:1030B80000000000010000004300000000000000C4
:1030C800F8B500BFF8BC08BC9E467047F8B500BF0D
:0830D800F8BC08BC9E467047DD
:0830E00070D1FF7F0100000028
:0430E80011020008C9
:0430EC00E1010008F6
:1030F00000000000000000001000002000000000A0
:1031000000000000FC02002064030020CC0300202B
:1031100000000000000000000000000000000000AF
:10312000000000000000000000000000000000009F
:1031300000000000C0300008000000000000000097
:10314000000000000000000000000000000000007F
:10315000000000000000000000000000000000006F
:10316000000000000000000000000000000000005F
:10317000000000000000000000000000000000004F
:10318000000000000000000000000000000000003F
:10319000000000000000000000000000000000002F
:1031A000000000000000000001000000000000001E
:1031B0000E33CDAB34126DE6ECDE05000B000000E3
:1031C00000000000000000000000000000000000FF
:1031D00000000000000000000000000000000000EF
:1031E00000000000000000000000000000000000DF
:1031F00000000000000000000000000000000000CF
:10352000000000000000000001000000000000009A
:10353000000000000102030406070809007A030ADC
:103540000000000001020304010203040607080949
:10355000000C0240000C0240000C0240000C024033
:043560000000024025
:043564000000000063
:0400000508002FF1CF
:00000001FF
